:020000040800F2
:1000000000500020D10F00087D0D0008830D00086E
:10001000890D00088F0D0008950D000800000000F4
:100020000000000000000000000000009B0D000820
:10003000A70D000800000000B30D0008BF0D000868
:1000400019100008191000081910000819100008EC
:1000500019100008191000081910000819100008DC
:1000600019100008191000081910000819100008CC
:100070001910000819100008CD0D0008E10D000846
:10008000F50D0008090E00081910000819100008E5
:10009000191000081910000819100008191000089C
:1000A000191000081910000819100008191000088C
:1000B000191000081910000819100008191000087C
:1000C000191000081910000819100008191000086C
:1000D000191000081D0E0008310E00081910000844
:1000E000191000081910000819100008000000007D
:1000F0000000000000000000000000000000000000
:0C01000000000000000000005FF808F1A3
:1001100010B5054C237833B9044B13B10448AFF341
:1001200000800123237010BDF001002000000000BA
:100130001474000808B5034B1BB103490348AFF31F
:10014000008008BD00000000F401002014740008C5
:10015000034613F8012B002AFBD1181A0138704707
:1001600081F0004102E000BF83F0004330B54FEA68
:1001700041044FEA430594EA050F08BF90EA020FD5
:100180001FBF54EA000C55EA020C7FEA645C7FEA68
:10019000655C00F0E2804FEA5454D4EB5555B8BF8B
:1001A0006D420CDD2C4480EA020281EA030382EAFC
:1001B000000083EA010180EA020281EA0303362D8E
:1001C00088BF30BD11F0004F4FEA01314FF4801C61
:1001D0004CEA113102D0404261EB410113F0004F73
:1001E0004FEA03334CEA133302D0524263EB43032A
:1001F00094EA050F00F0A780A4F10104D5F1200EC8
:100200000DDB02FA0EFC22FA05F2801841F1000122
:1002100003FA0EF2801843FA05F359410EE0A5F1F6
:1002200020050EF1200E012A03FA0EFC28BF4CF027
:10023000020C43FA05F3C01851EBE37101F00045DD
:1002400007D54FF0000EDCF1000C7EEB00006EEBEA
:100250000101B1F5801F1BD3B1F5001F0CD3490874
:100260005FEA30004FEA3C0C04F101044FEA4452CB
:1002700012F5800F80F09A80BCF1004F08BF5FEA52
:10028000500C50F1000041EB045141EA050130BD32
:100290005FEA4C0C404141EB0101013C28BFB1F544
:1002A000801FE9D291F0000F04BF01460020B1FA8F
:1002B00081F308BF2033A3F10B03B3F120020CDA62
:1002C0000C3208DD02F1140CC2F10C0201FA0CF040
:1002D00021FA02F10CE002F11402D8BFC2F1200CA5
:1002E00001FA02F120FA0CFCDCBF41EA0C0190405B
:1002F000E41AA2BF01EB0451294330BD6FEA0404A4
:100300001F3C1CDA0C340EDC04F11404C4F120028E
:1003100020FA04F001FA02F340EA030021FA04F3A0
:1003200045EA030130BDC4F10C04C4F1200220FAF7
:1003300002F001FA04F340EA0300294630BD21FA35
:1003400004F0294630BD94F0000F83F4801306BFFB
:1003500081F480110134013D4EE77FEA645C18BFEF
:100360007FEA655C29D094EA050F08BF90EA020F86
:1003700005D054EA000C04BF1946104630BD91EA7E
:10038000030F1EBF0021002030BD5FEA545C05D181
:100390004000494128BF41F0004130BD14F58004C0
:1003A0003CBF01F5801130BD01F0004545F0FE4134
:1003B00041F470014FF0000030BD7FEA645C1ABF69
:1003C000194610467FEA655C1CBF0B46024650EAA0
:1003D000013406BF52EA033591EA030F41F40021CC
:1003E00030BD00BF90F0000F04BF0021704730B552
:1003F0004FF4806404F132044FF000054FF0000127
:1004000050E700BF90F0000F04BF0021704730B5E7
:100410004FF4806404F1320410F0004548BF4042BC
:100420004FF000013EE700BF42004FEAE2014FEA11
:1004300031014FEA02701FBF12F07F4393F07F4FEC
:1004400081F06051704732F07F4208BF704793F0EF
:100450007F4F04BF41F40021704730B54FF4607402
:1004600001F0004521F000411CE700BF50EA010205
:1004700008BF704730B54FF000050AE050EA0102AE
:1004800008BF704730B511F0004502D5404261EB1E
:1004900041014FF4806404F132045FEA915C3FF45F
:1004A000D8AE4FF003025FEADC0C18BF03325FEAFC
:1004B000DC0C18BF033202EBDC02C2F1200300FAAD
:1004C00003FC20FA02F001FA03FE40EA0E0021FAD2
:1004D00002F11444BDE600BF70B54FF0FF0C4CF4C0
:1004E000E06C1CEA11541DBF1CEA135594EA0C0F72
:1004F00095EA0C0F00F0DEF82C4481EA030621EAAD
:100500004C5123EA4C5350EA013518BF52EA0335E7
:1005100041F4801143F4801338D0A0FB02CE4FF099
:100520000005E1FB02E506F00042E0FB03E54FF0C9
:100530000006E1FB03569CF0000F18BF4EF0010EC1
:10054000A4F1FF04B6F5007F64F5407404D25FEABD
:100550004E0E6D4146EB060642EAC62141EA555170
:100560004FEAC52040EA5E504FEACE2EB4F1FD0CB2
:1005700088BFBCF5E06F1ED8BEF1004F08BF5FEA30
:10058000500E50F1000041EB045170BD06F00046E2
:1005900046EA010140EA020081EA0301B4EB5C048F
:1005A000C2BFD4EB0C0541EA045170BD41F4801187
:1005B0004FF0000E013C00F3AB8014F1360FDEBFAC
:1005C000002001F0004170BDC4F10004203C35DA88
:1005D0000C341BDC04F11404C4F1200500FA05F30B
:1005E00020FA04F001FA05F240EA020001F00042AC
:1005F00021F0004110EBD37021FA04F642EB060122
:100600005EEA430E08BF20EAD37070BDC4F10C044B
:10061000C4F1200500FA04F320FA05F001FA04F20F
:1006200040EA020001F0004110EBD37041F10001FB
:100630005EEA430E08BF20EAD37070BDC4F1200506
:1006400000FA05F24EEA020E20FA04F301FA05F26E
:1006500043EA020321FA04F001F0004121FA04F216
:1006600020EA020000EBD3705EEA430E08BF20EAE6
:10067000D37070BD94F0000F0FD101F00046400020
:1006800041EB010111F4801F08BF013CF7D041EAA2
:10069000060195F0000F18BF704703F000465200A6
:1006A00043EB030313F4801F08BF013DF7D043EA77
:1006B0000603704794EA0C0F0CEA135518BF95EA2D
:1006C0000C0F0CD050EA410618BF52EA4306D1D1B4
:1006D00081EA030101F000414FF0000070BD50EAD3
:1006E000410606BF1046194652EA430619D094EA5D
:1006F0000C0F02D150EA013613D195EA0C0F05D147
:1007000052EA03361CBF104619460AD181EA03019A
:1007100001F0004141F0FE4141F470014FF0000052
:1007200070BD41F0FE4141F4780170BD70B54FF0ED
:10073000FF0C4CF4E06C1CEA11541DBF1CEA13556D
:1007400094EA0C0F95EA0C0F00F0A7F8A4EB05044F
:1007500081EA030E52EA03354FEA013100F0888046
:100760004FEA03334FF0805545EA131343EA12630F
:100770004FEA022245EA111545EA10654FEA0026C4
:100780000EF000419D4208BF964244F1FD0404F57D
:10079000407402D25B084FEA3202B61A65EB0305D9
:1007A0005B084FEA32024FF480104FF4002CB6EB96
:1007B000020E75EB030E22BFB61A754640EA0C0016
:1007C0005B084FEA3202B6EB020E75EB030E22BF56
:1007D000B61A754640EA5C005B084FEA3202B6EB97
:1007E000020E75EB030E22BFB61A754640EA9C0056
:1007F0005B084FEA3202B6EB020E75EB030E22BF26
:10080000B61A754640EADC0055EA060E18D04FEAE3
:10081000051545EA16754FEA06164FEAC30343EA83
:1008200052734FEAC2025FEA1C1CC0D111F4801F50
:100830000BD141EA00014FF000004FF0004CB6E749
:1008400011F4801F04BF01430020B4F1FD0C88BFE8
:10085000BCF5E06F3FF6AFAEB5EB030C04BFB6EBF3
:10086000020C5FEA500C50F1000041EB045170BDE6
:100870000EF0004E4EEA113114EB5C04C2BFD4EB13
:100880000C0541EA045170BD41F480114FF0000E97
:10089000013C90E645EA060E8DE60CEA135594EA13
:1008A0000C0F08BF95EA0C0F3FF43BAF94EA0C0F16
:1008B0000AD150EA01347FF434AF95EA0C0F7FF48B
:1008C00025AF104619462CE795EA0C0F06D152EADF
:1008D00003353FF4FDAE1046194622E750EA4106C3
:1008E00018BF52EA43067FF4C5AE50EA41047FF4D4
:1008F0000DAF52EA43057FF4EBAE12E74FF0FF3C39
:1009000006E000BF4FF0010C02E000BF4FF0010C09
:100910004DF804CD4FEA410C7FEA6C5C4FEA430C82
:1009200018BF7FEA6C5C1BD001B050EA410C0CBFD1
:1009300052EA430C91EA030F02BF90EA020F002033
:10094000704710F1000F91EA030F58BF994208BF9A
:1009500090422CBFD8176FEAE37040F00100704757
:100960004FEA410C7FEA6C5C02D150EA013C07D1AE
:100970004FEA430C7FEA6C5CD6D152EA033CD3D0F9
:100980005DF8040B704700BF8446104662468C46F3
:100990001946634600E000BF01B5FFF7B7FF002826
:1009A00048BF10F1000F01BD4DF808EDFFF7F4FF4F
:1009B0000CBF012000205DF808FB00BF4DF808EDDA
:1009C000FFF7EAFF34BF012000205DF808FB00BFFD
:1009D0004DF808EDFFF7E0FF94BF012000205DF81F
:1009E00008FB00BF4DF808EDFFF7CEFF94BF0120D4
:1009F00000205DF808FB00BF4DF808EDFFF7C4FFCD
:100A000034BF012000205DF808FB00BF4FEA410C15
:100A10007FEA6C5C02D150EA013C0AD14FEA430CF8
:100A20007FEA6C5C02D152EA033C02D14FF0000035
:100A300070474FF0010070474FEA410212F5001273
:100A400015D211D56FF47873B3EB625212D94FEA15
:100A5000C12343F0004343EA505311F0004F23FAFF
:100A600002F018BF404270474FF00000704750EA54
:100A7000013005D111F0004008BF6FF00040704711
:100A80004FF00000704700BF80B500AF4FF4165123
:100A9000002001F099F84FF4E131012001F094F8C1
:100AA00000BF80BD2DE9F04383B000AF00F024FF0C
:100AB0004C4BD3E92423002000F0ECFE00F01CFF97
:100AC0004FF4967000F0D2F8464BD3E9262300206D
:100AD00000F0E0FE00F010FF4FF4967000F0C6F852
:100AE000404BD3E90023002000F0D4FE00F004FFC7
:100AF0004FF4967000F0BAF83A4BD3E92223002065
:100B000000F0C8FE00F0F8FE4FF4967000F0AEF86A
:100B1000344BD3E92623002000F0BCFE00F0ECFEAD
:100B20004FF4967000F0A2F800237B6010E02E4A8C
:100B30007B68DB001344D3E90023002000F0AAFE09
:100B400000F0DAFE642000F091F87B6801337B60EE
:100B50007B68092BEBDD00233B603EE0234A3B68CA
:100B6000DB001344D3E900234FF0FF004FF00001F6
:100B700042EA000843EA010942464B46002000F0E1
:100B800089FE00F0B9FE4FF4967000F06FF83B68F4
:100B9000002B1FDD154A3B68DB001344D3E900231B
:100BA0003968A1F12006C1F1200003FA01F502FA2B
:100BB00006F6354322FA00F0054302FA01F4224614
:100BC0002B46002000F066FE00F096FE4FF4967073
:100BD00000F04CF83B6801333B603B68072BBDDD00
:100BE00066E700BFE87400089874000858740008AD
:100BF00080B584B000AF01F0ABFA00F042F81A4BB8
:100C00009B69194A43F010039361174B9B6903F0EA
:100C10001003FB60FB68144B9B69134A43F02003ED
:100C20009361114B9B6903F02003BB60BB680E4BC3
:100C30009B690D4A43F0080393610B4B9B6903F0DA
:100C400008037B607B68084B9B69074A43F00403F9
:100C50009361054B9B6903F004033B603B6800BF55
:100C60001037BD4680BD00BF0010024080B582B085
:100C700000AF7860786801F0CDFA00BF0837BD4654
:100C800080BD80B590B000AF07F118032822002185
:100C9000184603F0E1FE3B1D00221A605A609A607C
:100CA000DA601A610123BB614FF48033FB610023DA
:100CB0003B620123BB6202237B634FF48033BB633F
:100CC0004FF4E013FB6307F11803184602F09CFA97
:100CD0000346002B01D000F019F80F237B6002239C
:100CE000BB600023FB604FF480633B6100237B61AA
:100CF0003B1D0221184602F007FD0346002B01D0E0
:100D000000F004F800BF4037BD4680BD80B400AF9E
:100D100072B600BFFEE7000080B485B000AF154B8F
:100D20009B69144A43F001039361124B9B6903F0E2
:100D30000103BB60BB680F4BDB690E4A43F0805375
:100D4000D3610C4BDB6903F080537B607B680A4BFB
:100D50005B68FB60FB6823F0E063FB60FB6843F0CB
:100D60000073FB60044AFB68536000BF1437BD4644
:100D700080BC7047001002400000014080B400AF0A
:100D8000FEE780B400AFFEE780B400AFFEE780B4BA
:100D900000AFFEE780B400AFFEE780B400AF00BF55
:100DA000BD4680BC704780B400AF00BFBD4680BC6C
:100DB000704780B400AF00BFBD4680BC704780B5AF
:100DC00000AF01F00BFA00BF80BD000080B500AF9E
:100DD000024801F049FD00BF80BD00BF980400201B
:100DE00080B500AF024801F03FFD00BF80BD00BFED
:100DF000DC04002080B500AF024801F035FD00BFE3
:100E000080BD00BF5404002080B500AF024801F04F
:100E10002BFD00BF80BD00BF2005002080B500AFC6
:100E2000024803F01DF900BF80BD00BF640500202B
:100E300080B500AF024803F013F900BF80BD00BFCA
:100E4000A805002080B400AF01231846BD4680BC31
:100E5000704780B582B000AF7860396003F0D2FD92
:100E6000034616221A604FF0FF3318460837BD4676
:100E700080BD80B582B000AF78604FF0FF317868F8
:100E8000FFF7E7FFFEE780B586B000AFF860B96016
:100E90007A6000237B610AE0AFF300800146BB6803
:100EA0005A1CBA60CAB21A707B6901337B617A69D5
:100EB0007B689A42F0DB7B6818461837BD4680BDD8
:100EC00080B586B000AFF860B9607A6000237B61BE
:100ED00009E0BB685A1CBA601B781846AFF3008063
:100EE0007B6901337B617A697B689A42F1DB7B68BD
:100EF00018461837BD4680BD80B483B000AF786017
:100F00004FF0FF3318460C37BD4680BC704780B4A5
:100F100083B000AF786039603B684FF400525A608C
:100F2000002318460C37BD4680BC704780B483B0A0
:100F300000AF7860012318460C37BD4680BC70476F
:100F400080B485B000AFF860B9607A6000231846BD
:100F50001437BD4680BC704780B586B000AF78605E
:100F6000144A154BD31A7B617B693B61134B1B6899
:100F7000002B02D1114B124A1A60104B1A687B6881
:100F800013443A699A4207D203F03CFD03460C220F
:100F90001A604FF0FF3309E0084B1B68FB60074BFA
:100FA0001A687B681344054A1360FB6818461837B3
:100FB000BD4680BD00500020000400000C0200204F
:100FC0000006002080B400AF00BFBD4680BC704763
:100FD0000C480D490D4A002302E0D458C450043394
:100FE000C4188C42F9D30A4A0A4C002301E013606A
:100FF0000432A242FBD3FFF7E5FF03F009FD03F043
:10100000F5FC704700000020F00100207C7A000809
:10101000F001002000060020FEE780B487B000AF9A
:10102000F860B9607A600123FB75FB6800221A60E2
:10103000FB6800225A60FB687A689A60FB68BA68AD
:10104000DA60FB7D18461C37BD4680BC704780B512
:1010500000AF40F2DC50FFF709FE00BF80BD00008A
:1010600080B582B000AF0123FB7000237B601EE0DF
:101070007B68D8B212497A6813465B0013449B0020
:101080000B4406331B78194600F01CF87B68D8B275
:101090000B497A6813465B0013449B000B440933E9
:1010A0001B78194600F076F87B6801337B607B681B
:1010B000002BDDDDFB7818460837BD4680BD00BF3C
:1010C0000400002080B588B000AF03460A46FB71DB
:1010D0001346BB710123FB7707F10C0300221A6052
:1010E0005A609A60DA60BB79052B33D801A252F8B6
:1010F00023F000BF0D11000817110008211100088E
:101100002B110008391100084711000800233B612A
:1011100000237B611EE000233B6101237B6119E01A
:1011200000233B6102237B6114E001233B61002328
:101130007B610223BB610DE001233B6101237B61E5
:101140000223BB6106E001233B6102237B61022392
:10115000BB6100BFFA790E4913465B0013449B0044
:101160000B4404331B88FB60FA79094913465B0082
:1011700013449B000B441B6807F10C0211461846F0
:1011800001F0A6FCFB7F18462037BD4680BD00BF9E
:101190000400002090B583B000AF03460A46FB71FF
:1011A0001346BB71FB79012B3ED8BB79002B1DD0B8
:1011B000FA791F4913465B0013449B000B441868DF
:1011C000FA791B4913465B0013449B000B4404331C
:1011D0001988FA79164C13465B0013449B0023448C
:1011E00007331B781A4601F0B3FE1EE0FA79104966
:1011F00013465B0013449B000B441868FA790C49B2
:1012000013465B0013449B000B4404331988FA799E
:10121000074C13465B0013449B00234408331B78A0
:101220001A4601F095FE00E000BF0C37BD4690BDA8
:101230000400002080B500AF124B134A1A60114B16
:10124000124A5A600F4B00229A600E4B0022DA605D
:101250000C4B4FF480421A610A4B00225A61094B31
:1012600000229A61074B0022DA61064B00221A62C3
:10127000044801F085FE0346002B01D0FFF746FD30
:1012800000BF80BD3C03002000540040A086010048
:1012900080B588B000AF786007F1100300221A60B3
:1012A0005A609A60DA607B681B68154A934223D1C2
:1012B000144B9B69134A43F008039361114B9B69DC
:1012C00003F00803FB60FB68C0233B6112237B61D2
:1012D0000323FB6107F1100319460B4801F0F8FBEB
:1012E000084BDB69074A43F40013D361054BDB6904
:1012F00003F40013BB60BB6800BF2037BD4680BD50
:101300000054004000100240000C014080B586B03F
:1013100000AF0123FB743B4600221A605A609A60BA
:10132000DA6001237B600023BB600223FB600023A3
:101330007B6116E00F4A7B69DB0013449B883B60AE
:101340000C4A7B6952F833303A461146184601F090
:10135000BFFB7B69DBB2184600F00EF87B690133F6
:101360007B617B69002BE5DDFB7C18461837BD46A9
:1013700080BD00BF1000002080B582B000AF0346E2
:10138000FB71FB79002B11D1FB790A4A52F833002B
:10139000FB79084ADB0013449988FB79054ADB0096
:1013A0001344DB791A4601F0D3FD00E000BF083793
:1013B000BD4680BD1000002080B584B000AFF8604D
:1013C000B9601346FB80084AFB681360074ABB6894
:1013D0001360074AFB88138000F098F900F068F961
:1013E00000BF1037BD4680BD980300209003002049
:1013F0009403002080B584B000AF0346FB710B4618
:10140000BB7113467B71FB79002B01D000235BE09D
:1014100000F03AF9FB79FB6018E0002000F05CF97D
:10142000034683F00103DBB2002B01D000234BE025
:10143000002000F051F9034683F00103DBB2002BDA
:1014400001D0002340E0FB680133FB60FB68002B08
:10145000E3DBBB79184600F03FF9034683F0010354
:10146000DBB2002B01D000232EE07B79184600F080
:1014700033F9034683F00103DBB2002B01D00023D4
:1014800022E00023BB6018E0002000F025F90346AD
:1014900083F00103DBB2002B01D0002314E0002015
:1014A00000F01AF9034683F00103DBB2002B01D0F0
:1014B000002309E0BB680133BB60FB79BA689A423C
:1014C000E2DB00F0F5F8012318461037BD4680BD79
:1014D00080B582B000AF0346FB710B46BB7113466B
:1014E0007B71FB79002B01D0002315E0BB79072B22
:1014F00001D9002310E0BB790133D9B27A79FB79A5
:101500001846FFF777FF034683F00103DBB2002B99
:1015100001D0002300E0012318460837BD4680BDF6
:1015200080B582B000AF03460A46FB711346BB711B
:10153000FB79002B01D000230EE0BA79FB79092159
:101540001846FFF757FF034683F00103DBB2002B79
:1015500001D0002300E0012318460837BD4680BDB6
:1015600080B582B000AF03460A46FB711346BB71DB
:10157000FB79002B01D0002313E0BB790F2B01D99D
:101580000F23BB71BA79FB790A211846FFF732FFA6
:10159000034683F00103DBB2002B01D0002300E0FF
:1015A000012318460837BD4680BD80B582B000AF24
:1015B00003460A46FB711346BB71FB79002B01D031
:1015C000002313E0BB79072B01D90723BB71BA793C
:1015D000FB790B211846FFF70DFF034683F001034B
:1015E000DBB2002B01D0002300E0012318460837AE
:1015F000BD4680BD80B582B000AF03460A46FB7190
:101600001346BB71FB79002B01D0002313E0BB799B
:10161000012B01D90123BB71BA79FB790C21184642
:10162000FFF7E8FE034683F00103DBB2002B01D095
:10163000002300E0012318460837BD4680BD80B571
:1016400082B000AF03460A46FB711346BB71FB79BB
:10165000002B01D0002313E0BB79012B01D901231A
:10166000BB71BA79FB790F211846FFF7C3FE034619
:1016700083F00103DBB2002B01D0002300E0012343
:1016800018460837BD4680BD80B500AF064B1B68C5
:10169000064A11880022184601F05AFC012000F089
:1016A0005DF800BF80BD00BF9003002094030020C0
:1016B00080B500AF064B1B68064A11880122184608
:1016C00001F046FC012000F049F800BF80BD00BFDA
:1016D000900300209403002080B582B000AF034641
:1016E000FB71094B1868F91D4FF0FF33012202F01E
:1016F00029FA0346002B01D0002300E001231846FD
:101700000837BD4680BD00BF9803002080B400AFFD
:10171000104BDB680F4A23F08073D3600D4BDB68FE
:101720000C4A43F08073D3600B4B1B680A4A23F0CA
:1017300001031360084B1B68074A43F00103136061
:10174000054B00225A6000BF00BF00BF00BFBD466E
:1017500080BC7047F0ED00E0001000E080B487B07E
:1017600000AF78600D4B1B680D4AA2FB03239A0C57
:101770007B6802FB03F37B610A4B5B683B61094BAF
:101780005A683B69D31AFB60FB687A699A42F6D8BB
:1017900000BF00BF1C37BD4680BC70470000002062
:1017A00083DE1B43001000E080B586B000AF00224E
:1017B0004FF48071264801F0CBFB4FF480737B60BF
:1017C0000123BB600023FB6002233B613B1D1946E4
:1017D0001F4801F07DF94FF480721D491D48FFF745
:1017E000EBFD00237B612AE07B69DBB2184600F049
:1017F00033F87B69DBB201211846FFF7FBFE7B69FA
:10180000DBB200211846FFF71AFF7B69DBB200212B
:101810001846FFF785FE7B69DBB201211846FFF70A
:101820009FFE7B69DBB207211846FFF7BEFE7B698E
:10183000DBB2184600F010F87B6901337B617B69ED
:10184000002BD1DD00BF00BF1837BD4680BD00BFF3
:1018500000080140A403002080B485B000AF034617
:10186000FB710023FB600AE0FB79094ADB001A44A4
:10187000FB68134400221A70FB680133FB60FB68AD
:10188000072BF1DD00BF00BF1437BD4680BC704799
:101890009C03002080B487B000AF0146C7E9002355
:1018A0000B46FB7300237B611AE03B68FB74FA7BF9
:1018B0007B69C3F107030F49D2000A441344FA7C41
:1018C0001A70D7E900014FF000024FF00003020A3E
:1018D00042EA01620B0AC7E900237B6901337B619D
:1018E0007B69072BE1DD00BF00BF1C37BD4680BC14
:1018F000704700BF9C03002080B584B000AF002378
:10190000FB6024E00023BB601BE0154AFB68DB00A2
:101910001A44BB6813441B78FB71FB68DBB2BA68DE
:10192000D1B297F907201846FFF7D2FD034683F09E
:101930000103DBB2002B01D000230CE0BB680133B4
:10194000BB60BB68072BE0DDFB680133FB60FB6815
:10195000002BD7DD012318461037BD4680BD00BFE0
:101960009C03002080B584B000AF3B4600221A6083
:101970005A609A60DA6000222021124801F0E8FAE9
:10198000012210210F4801F0E3FA30233B600123CC
:101990007B600023BB600223FB603B46194609487D
:1019A00001F096F808233B6000237B600123BB60B5
:1019B0003B461946034801F08BF800BF1037BD467F
:1019C00080BD00BF000C014080B500AF174B184A26
:1019D0001A60164B4FF482725A60144B00229A60C0
:1019E000124B0022DA60114B00221A610F4B0022C9
:1019F0005A610E4B4FF400729A610C4B1022DA615F
:101A00000A4B00221A62094B00225A62074B00223D
:101A10009A62064B0A22DA62044802F00FF8034683
:101A2000002B01D0FFF772F900BF80BDFC0300203E
:101A30000030014080B500AF174B184A1A60164BB2
:101A40004FF482725A60144B00229A60124B0022AB
:101A5000DA60114B00221A610F4B00225A610E4BC3
:101A60004FF400729A610C4B0822DA610A4B002293
:101A70001A62094B00225A62074B00229A62064BF7
:101A80000A22DA62044801F0D9FF0346002B01D094
:101A9000FFF73CF900BF80BDA403002000380040E0
:101AA00080B58AB000AF786007F1180300221A6091
:101AB0005A609A60DA607B681B68314A934230D181
:101AC000304B9B692F4A43F4805393612D4B9B69A4
:101AD00003F480537B617B692A4B9B69294A43F05D
:101AE00004039361274B9B6903F004033B613B694B
:101AF000A023BB610223FB6103237B6207F1180370
:101B00001946214800F0E4FF4023BB610023FB613C
:101B100000233B6207F1180319461B4800F0D8FF69
:101B200029E07B681B68194A934224D1154BDB6975
:101B3000144A43F48043D361124BDB6903F48043BE
:101B4000FB60FB680F4B9B690E4A43F008039361EF
:101B50000C4B9B6903F00803BB60BB684FF4204348
:101B6000BB610223FB6103237B6207F11803194663
:101B7000074800F0ADFF00BF2837BD4680BD00BF5D
:101B800000300140001002400008014000380040D1
:101B9000000C014080B483B000AF00237B6007E0FD
:101BA000084A7B68134400221A707B6801337B600B
:101BB0007B68012BF4DD012318460C37BD4680BC41
:101BC000704700BF1002002080B586B000AF03460A
:101BD0003960FB710023FB75FB79002B02D0012BD0
:101BE00076D0EBE0784B794A1A60774A3B685360CD
:101BF000754B00229A60744B0022DA60724B00220F
:101C00001A61714B0C225A616F4B00229A616E4B24
:101C10000022DA616C4802F0C4F9FB791B016C4ABE
:101C200013444FF480726B491846FFF7F6F96A4B7C
:101C30005B69694A43F001035361674B5B6903F0D9
:101C400001033B613B69002200210F2000F001FCF1
:101C50000F2000F01AFC5C4802F056F90346002BF6
:101C600002D00023FB75A9E00123FB75FB795B4AD9
:101C70000121D1544FF480725649534802F0C0F903
:101C80000346002B01D00023FB75FB79504A1B0152
:101C9000134408331968524B1B685A68FB798A1A37
:101CA0004B491B010B441A60FA79FB794849120130
:101CB0000A44126846491B010B4404331A6000228F
:101CC00000210E2000F0C5FB0E2000F0DEFB75E0C9
:101CD000444B454A1A60434A3B685360414B0022DB
:101CE0009A60404B0022DA603E4B00221A613D4B65
:101CF0000C225A613B4B00229A613A4B0022DA6176
:101D0000384802F04EF9FB791B01314A13444FF475
:101D1000807230491846FFF780F92F4B5B692E4AD5
:101D200043F0010353612C4B5B6903F00103FB603B
:101D3000FB6800220021102000F08BFB102000F037
:101D4000A4FB284802F0E0F80346002B02D0002351
:101D5000FB7532E00123FB75FB79204A0121D15448
:101D60004FF480721B491F4802F04AF90346002BCA
:101D700001D00023FB75FB79154A1B01134408337E
:101D800019681A4B1B685A68FB798A1A10491B019B
:101D90000B441A60FA79FB790D4912010A44126862
:101DA0000B491B010B4404331A600022002111204F
:101DB00000F04FFB112000F068FB00BFFB7D1846D0
:101DC0001837BD4680BD00BF6405002000380140C3
:101DD00014020020340200200010024010020020F3
:101DE000DC040020A805002000440040540400202A
:101DF00080B483B000AF786000BF0C37BD4680BCB4
:101E0000704780B483B000AF786000BF0C37BD4628
:101E100080BC704780B483B000AF786000BF0C37DF
:101E2000BD4680BC7047000080B58AB000AF7860C6
:101E300007F1180300221A605A609A60DA607B6822
:101E40001B68864A93427AD1854B9B69844A43F446
:101E500080439361824B9B6903F480437B617B6980
:101E60004FF40073BB610223FB6103237B6207F124
:101E7000180319467B4800F02BFE4FF48063BB61CA
:101E80000023FB6100233B6207F1180319467548E4
:101E900000F01EFE744B754A1A60734B00225A60A4
:101EA000714B00229A60704B8022DA606E4B0022E8
:101EB0001A616D4B00225A616B4B20229A616A4B6A
:101EC0000022DA61684800F009FB0346002B01D0CC
:101ED000FEF71CFF7B68644A9A63634A7B6853621F
:101EE000634B644A1A60624B10225A60604B0022B6
:101EF0009A605F4B8022DA605D4B00221A615C4B76
:101F000000225A615A4B00229A61594B0022DA6131
:101F1000574800F0E3FA0346002B01D0FEF7F6FE27
:101F20007B68534A5A63524A7B68536200220021FD
:101F3000252000F08EFA252000F0A7FA89E07B68C2
:101F40001B684D4A934240F08480454BDB69444A0C
:101F500043F40033D361424BDB6903F400333B614C
:101F60003B693F4B9B693E4A43F0040393613C4B02
:101F70009B6903F00403FB60FB680423BB6102233D
:101F8000FB6103237B6207F118031946354800F013
:101F90009FFD0823BB610023FB6100233B6207F127
:101FA000180319462F4800F093FD344B344A1A6049
:101FB000324B00225A60314B00229A602F4B802214
:101FC000DA602E4B00221A612C4B00225A612B4BF7
:101FD00020229A61294B0022DA61284800F07EFA1B
:101FE0000346002B01D0FEF791FE7B68234A9A63DB
:101FF000224A7B685362234B234A1A60214B1022EA
:102000005A60204B00229A601E4B8022DA601D4BE2
:1020100000221A611B4B00225A611A4B00229A615E
:10202000184B0022DA61174800F058FA0346002BDB
:1020300001D0FEF76BFE7B68124A5A63114A7B6837
:10204000536200220021262000F003FA262000F02F
:102050001CFA00BF2837BD4680BD00BF00380140D4
:102060000010024000080140DC040020580002403B
:102070009804002044000240004400405404002022
:102080006C000240200500208000024080B582B034
:1020900000AF78607B681B681D4A934218D11D4BC6
:1020A0009B691C4A23F4804393614FF4C0611A4832
:1020B00000F092FE7B689B6B184600F069FA7B6823
:1020C0005B6B184600F064FA252000F0ECF91BE089
:1020D0007B681B68114A934216D10E4BDB690D4A8F
:1020E00023F40033D3610C210B4800F075FE7B68AC
:1020F0009B6B184600F04CFA7B685B6B184600F04F
:1021000047FA262000F0CFF900BF0837BD4680BD52
:102110000038014000100240000801400044004027
:1021200080B500AFFEF764FDFFF734FDFFF782F8DE
:10213000FFF74AFCFFF77EFCFEF792FFFFF734FB48
:10214000FFF710FCFEF783FFFFF7E0F800BF80BD4C
:1021500080B500AF084B1B68074A43F010031360BB
:10216000032000F06BF9002000F008F8FEF7D4FD22
:102170000023184680BD00BF0020024080B582B019
:1021800000AF7860124B1A68124B1B7819464FF457
:102190007A73B3FBF1F3B2FBF3F3184600F091F955
:1021A0000346002B01D001230EE07B680F2B0AD8D9
:1021B000002279684FF0FF3000F04BF9064A7B6847
:1021C0001360002300E0012318460837BD4680BD98
:1021D000000000201C0000201800002080B400AF88
:1021E000054B1B781A46054B1B681344034A1360C2
:1021F00000BFBD4680BC70471C000020EC050020DD
:1022000080B400AF024B1B681846BD4680BC7047C7
:10221000EC05002080B584B000AF7860FFF7F0FFD8
:10222000B8607B68FB60FB68B3F1FF3F05D00A4BE9
:102230001B781A46FB681344FB6000BFFFF7E0FF02
:102240000246BB68D31AFA689A42F7D800BF00BFAB
:102250001037BD4680BD00BF1C00002080B485B093
:1022600000AF78607B6803F00703FB600C4BDB6812
:10227000BB60BA684FF6FF031340BB60FB681A02ED
:10228000BB68134343F0BF6343F40033BB60044AAD
:10229000BB68D36000BF1437BD4680BC704700BF29
:1022A00000ED00E080B400AF044BDB681B0A03F0D4
:1022B00007031846BD4680BC704700BF00ED00E034
:1022C00080B483B000AF0346FB7197F90730002B51
:1022D0000BDBFB7903F01F02064997F907305B0916
:1022E000012000FA02F241F8232000BF0C37BD465E
:1022F00080BC704700E100E080B483B000AF0346CB
:10230000FB7197F90730002B12DBFB7903F01F02FA
:102310000A4997F907305B09012000FA02F22033DD
:1023200041F82320BFF34F8F00BFBFF36F8F00BF73
:1023300000BF0C37BD4680BC704700BF00E100E025
:1023400080B483B000AF03463960FB7197F9073062
:10235000002B0ADB3B68DAB20C4997F9073012010F
:10236000D2B20B4483F800230AE03B68DAB2084992
:10237000FB7903F00F03043B1201D2B20B441A762F
:1023800000BF0C37BD4680BC704700BF00E100E0D5
:1023900000ED00E080B489B000AFF860B9607A6009
:1023A000FB6803F00703FB61FB69C3F10703042B20
:1023B00028BF0423BB61FB690433062B02D9FB69E8
:1023C000033B00E000237B614FF0FF32BB6902FA60
:1023D00003F3DA43BB681A407B699A404FF0FF3140
:1023E0007B6901FA03F3D9437B680B40134318461A
:1023F0002437BD4680BC704780B582B000AF78609E
:102400007B68013BB3F1807F01D301230FE00A4ACF
:102410007B68013B53600F214FF0FF30FFF790FFC7
:10242000054B00229A60044B07221A6000231846CD
:102430000837BD4680BD00BF10E000E080B582B027
:1024400000AF78607868FFF709FF00BF0837BD4626
:1024500080BD80B586B000AF0346B9607A60FB737B
:1024600000237B61FFF71EFF78617A68B96878699D
:10247000FFF790FF024697F90F3011461846FFF715
:102480005FFF00BF1837BD4680BD80B582B000AF8A
:102490000346FB7197F907301846FFF711FF00BF9D
:1024A0000837BD4680BD80B582B000AF0346FB71E2
:1024B00097F907301846FFF71FFF00BF0837BD46E2
:1024C00080BD80B582B000AF78607868FFF794FF78
:1024D000034618460837BD4680BD000080B485B06D
:1024E00000AF78600023FB607B68002B01D10123E3
:1024F00043E07B681B681A46224B1344224AA2FB26
:1025000003231B099A007B681A647B681F4ADA63FD
:102510007B68022283F821207B681B681B68FB60B4
:10252000FB6823F47F5323F03003FB607B685A6819
:102530007B689B681A437B68DB681A437B681B696E
:102540001A437B685B691A437B689B691A437B6803
:10255000DB691343FA681343FB607B681B68FA6806
:102560001A607B6800229A637B68012283F821202D
:102570007B68002283F82020002318461437BD46CC
:1025800080BC7047F8FFFDBFCDCCCCCC0000024032
:1025900080B483B000AF78607B68002B01D1012349
:1025A00046E07B681B681A687B681B6822F00102A2
:1025B0001A607B681B6800221A607B681B68002217
:1025C0005A607B681B6800229A607B681B68002247
:1025D000DA607B681B681A46184B1344184AA2FB42
:1025E00003231B099A007B681A647B68154ADA6327
:1025F0007B681A6C7B68DB6B012101FA02F25A607E
:102600007B6800229A627B680022DA627B68002283
:102610001A637B6800225A637B6800229A637B6896
:10262000002283F821207B68002283F820200023E9
:1026300018460C37BD4680BC704700BFF8FFFDBF91
:10264000CDCCCCCC0000024080B586B000AFF860A5
:10265000B9607A603B600023FB75FB6893F820301B
:10266000012B01D102234AE0FB68012283F82020DC
:10267000FB6893F82130012B3AD1FB68022283F8E2
:102680002120FB6800229A63FB681B681A68FB68BC
:102690001B6822F001021A603B687A68B968F86822
:1026A00000F0E8F9FB68DB6A002B08D0FB681B68C8
:1026B0001A68FB681B6842F00E021A600FE0FB68A4
:1026C0001B681A68FB681B6822F004021A60FB682A
:1026D0001B681A68FB681B6842F00A021A60FB68F4
:1026E0001B681A68FB681B6842F001021A6005E06B
:1026F000FB68002283F820200223FB75FB7D18462F
:102700001837BD4680BD80B485B000AF7860002327
:10271000FB737B6893F82130022B08D07B6804227E
:102720009A637B68002283F82020012320E07B68E5
:102730001B681A687B681B6822F00E021A607B68AF
:102740001B681A687B681B6822F001021A607B68AC
:102750001A6C7B68DB6B012101FA02F25A607B681C
:10276000012283F821207B68002283F82020FB7B54
:1027700018461437BD4680BC7047000080B584B051
:1027800000AF78600023FB737B6893F82130022B45
:1027900005D07B6804229A630123FB7351E07B68B8
:1027A0001B681A687B681B6822F00E021A607B683F
:1027B0001B681A687B681B6822F001021A607B683C
:1027C0001B68224A934229D07B681B68204A9342A7
:1027D00022D07B681B681F4A93421AD07B681B6813
:1027E0001D4A934212D07B681B681C4A93420AD050
:1027F0007B681B681A4A934202D14FF480130EE0A3
:102800004FF080730BE04FF4803308E04FF48053B7
:1028100005E04FF4807302E0102300E00123114A29
:1028200053607B68012283F821207B68002283F8B3
:1028300020207B685B6B002B03D07B685B6B786828
:102840009847FB7B18461037BD4680BD0800024004
:102850001C00024030000240440002405800024088
:102860006C0002400000024080B584B000AF786088
:102870007B68DB6B1B68FB607B681B681B68BB604D
:102880007B681B6C04229A40FB681340002B4FD0DE
:10289000BB6803F00403002B4AD07B681B681B68ED
:1028A00003F02003002B07D17B681B681A687B6844
:1028B0001B6822F004021A607B681B68664A934218
:1028C00029D07B681B68654A934222D07B681B68CD
:1028D000634A93421AD07B681B68624A934212D0C3
:1028E0007B681B68604A93420AD07B681B685F4A1A
:1028F000934202D14FF480030EE04FF080630BE06F
:102900004FF4802308E04FF4804305E04FF48063E8
:1029100002E0402300E00423554A53607B68DB6AF1
:10292000002B00F094807B68DB6A786898478EE023
:102930007B681B6C02229A40FB681340002B56D028
:10294000BB6803F00203002B51D07B681B681B6837
:1029500003F02003002B0BD17B681B681A687B688F
:102960001B6822F00A021A607B68012283F821208A
:102970007B681B68384A934229D07B681B68374ABA
:10298000934222D07B681B68354A93421AD07B68F9
:102990001B68344A934212D07B681B68324A9342C8
:1029A0000AD07B681B68314A934202D14FF400136E
:1029B0000EE04FF000730BE04FF4003308E04FF4EB
:1029C000005305E04FF4007302E0202300E00223EF
:1029D000274A53607B68002283F820207B689B6A2B
:1029E000002B34D07B689B6A786898472FE07B681F
:1029F0001B6C08229A40FB681340002B28D0BB6850
:102A000003F00803002B23D07B681B681A687B68DF
:102A10001B6822F00E021A607B681A6C7B68DB6B05
:102A2000012101FA02F25A607B6801229A637B68F5
:102A3000012283F821207B68002283F820207B6814
:102A40001B6B002B04D07B681B6B7868984700BF1A
:102A500000BF1037BD4680BD080002401C00024088
:102A60003000024044000240580002406C00024026
:102A70000000024080B485B000AFF860B9607A60B1
:102A80003B60FB681A6CFB68DB6B012101FA02F208
:102A90005A60FB681B683A685A60FB685B68102BD9
:102AA00008D1FB681B687A689A60FB681B68BA6883
:102AB000DA6007E0FB681B68BA689A60FB681B680D
:102AC0007A68DA6000BF1437BD4680BC70470000EA
:102AD00080B48BB000AF7860396000237B62002344
:102AE0003B6269E101227B6A02FA03F3FB613B6806
:102AF0001B68FA691340BB61BA69FB699A4240F0EE
:102B000058813B685B689A4A93425ED0984A9342E8
:102B100075D8984A934258D0964A93426FD8964AAD
:102B2000934252D0944A934269D8944A93424CD0EB
:102B3000924A934263D8924A934246D0904A934233
:102B40005DD8122B2AD8122B59D801A252F823F0A3
:102B5000CB2B0008A52B0008B72B0008F92B000889
:102B6000FF2B0008FF2B0008FF2B0008FF2B00089D
:102B7000FF2B0008FF2B0008FF2B0008FF2B00088D
:102B8000FF2B0008FF2B0008FF2B0008FF2B00087D
:102B9000FF2B0008AD2B0008C12B0008794A934297
:102BA00013D02CE03B68DB683B6229E03B68DB68C4
:102BB00004333B6224E03B68DB6808333B621FE080
:102BC0003B68DB680C333B621AE03B689B68002B78
:102BD00002D104233B6213E03B689B68012B05D1C3
:102BE00008233B627B68FA691A6109E008233B62AB
:102BF0007B68FA695A6103E000233B6200E000BF92
:102C0000BB69FF2B01D87B6801E07B6804337B61E3
:102C1000BB69FF2B02D87B6A9B0002E07B6A083B02
:102C20009B003B617B691A680F213B6901FA03F342
:102C3000DB431A40396A3B6901FA03F31A437B69A3
:102C40001A603B685B6803F08053002B00F0B18092
:102C50004D4B9B694C4A43F0010393614A4B9B697E
:102C600003F00103BB60BB68484A7B6A9B080233E0
:102C700052F82330FB607B6A03F003039B000F22B2
:102C800002FA03F3DB43FA681340FB607B68404AB7
:102C9000934213D07B683F4A93420DD07B683E4AF3
:102CA000934207D07B683D4A934201D1032306E05B
:102CB000042304E0022302E0012300E000237A6AF7
:102CC00002F0030292009340FA681343FB602F491D
:102CD0007B6A9B080233FA6841F823203B685B68F3
:102CE00003F48033002B06D02D4B1A682C49BB69A6
:102CF00013430B6006E02A4B1A68BB69DB43284983
:102D000013400B603B685B6803F40033002B06D074
:102D1000234B5A682249BB6913434B6006E0204BA2
:102D20005A68BB69DB431E4913404B603B685B68D4
:102D300003F48013002B06D0194B9A681849BB691D
:102D400013438B6006E0164B9A68BB69DB4314495A
:102D500013408B603B685B6803F40013002B21D0A9
:102D60000F4BDA680E49BB691343CB6021E000BF0B
:102D7000000032100000311000002210000021106D
:102D8000000012100000111000100240000001406D
:102D900000080140000C01400010014000140140F7
:102DA000000401400B4BDA68BB69DB43094913405F
:102DB000CB607B6A01337B623B681A687B6A22FACC
:102DC00003F3002B7FF48EAE00BF00BF2C37BD464F
:102DD00080BC70470004014080B489B000AF7860C7
:102DE00039600023FB619AE00122FB6902FA03F3D8
:102DF0003A681340BB61BB69002B00F08D804E4ADE
:102E0000FB699B08023352F823307B61FB6903F0B6
:102E100003039B000F2202FA03F37A6913407B61DC
:102E20007B68464A934213D07B68454A93420DD053
:102E30007B68444A934207D07B68434A934201D15E
:102E4000032306E0042304E0022302E0012300E060
:102E50000023FA6902F00302920093407A699A42D1
:102E600032D1FB6903F003039B000F2202FA03F344
:102E70007B61314AFB699B08023352F823107B695E
:102E8000DA432D48FB699B080A40023340F82320AF
:102E90002E4B1A68BB69DB432C4913400B602B4B4C
:102EA0005A68BB69DB43294913404B60274B9A683A
:102EB000BB69DB43254913408B60244BDA68BB694F
:102EC000DB4322491340CB60BB69FF2B01D87B68F1
:102ED00001E07B6804333B61BB69FF2B02D8FB69CF
:102EE0009B0002E0FB69083B9B00FB603B691A68A2
:102EF0000F21FB6801FA03F3DB431A400421FB684E
:102F000001FA03F31A433B691A607B68DA68BB690C
:102F1000DB431A407B68DA60FB690133FB613A6886
:102F2000FB6922FA03F3002B7FF45EAF00BF00BF02
:102F30002437BD4680BC70470000014000080140B6
:102F4000000C014000100140001401400004014049
:102F500080B483B000AF78600B467B8013467B70F3
:102F60007B78002B03D07A887B681A6103E07B882A
:102F70001A047B681A6100BF0C37BD4680BC7047DD
:102F800080B584B000AF78607B68002B01D101234D
:102F90002BE17B6893F83D30DBB2002B06D17B68D8
:102FA000002283F83C207868FEF772F97B682422BF
:102FB00083F83D207B681B681A687B681B6822F0D9
:102FC00001021A607B681B681A687B681B6842F400
:102FD00000421A607B681B681A687B681B6822F4D1
:102FE00000421A6000F0E4FCF8607B685B68814A8C
:102FF000934207D8FB68804A934294BF0123002381
:10300000DBB206E0FB687D4A934294BF01230023B4
:10301000DBB2002B01D00123E7E0FB68784AA2FB7A
:1030200003239B0CBB607B681B685B6823F03F013C
:103030007B681B68BA680A435A607B681B681B6A16
:1030400023F03F017B685B686A4A934202D8BB6801
:10305000013309E0BB684FF4967202FB03F3694A3F
:10306000A2FB03239B0901337A6812680B431362A6
:103070007B681B68DB6923F44F4222F0FF027B6808
:103080005B685C498B4219D8FB68591E7B685B689A
:103090005B00B1FBF3F3591C40F6FC730B40002BB3
:1030A0000AD0FB68591E7B685B685B00B1FBF3F3D9
:1030B0000133C3F30B0351E004234FE07B689B68AB
:1030C000002B11D1FB68581E7B6859680B465B00CA
:1030D0000B44B0FBF3F30133C3F30B03002B0CBF22
:1030E00001230023DBB212E0FB68581E7B6859689D
:1030F0000B469B000B4499000B44B0FBF3F30133E8
:10310000C3F30B03002B0CBF01230023DBB2002B06
:1031100001D0012322E07B689B68002B0ED1FB6865
:10312000581E7B6859680B465B000B44B0FBF3F3F9
:103130000133C3F30B0343F400430FE0FB68581E55
:103140007B6859680B469B000B4499000B44B0FB0D
:10315000F3F30133C3F30B0343F440437968096885
:103160001343CB617B681B681B6823F0C0017B683D
:10317000DA697B681B6A1A437B681B680A431A601A
:103180007B681B689B6823F4034323F0FF037A6882
:1031900011697A68D26811437A6812680B439360A8
:1031A0007B681B68DB6823F0FF017B685A697B68DA
:1031B0009B691A437B681B680A43DA607B681B685B
:1031C0001A687B681B6842F001021A607B68002263
:1031D0001A647B68202283F83D207B6800221A63F2
:1031E0007B68002283F83E20002318461037BD4636
:1031F00080BD00BFA08601007F841E00FF083D0047
:1032000083DE1B43D34D621080B586B000AF78607B
:103210007B68002B01D101236CE27B681B6803F003
:103220000103002B00F08780924B5B6803F00C03D6
:10323000042B0CD08F4B5B6803F00C03082B12D1CE
:103240008C4B5B6803F48033B3F5803F0BD1894B23
:103250001B6803F40033002B6CD07B685B68002B89
:1032600068D1012346E27B685B68B3F5803F06D1F5
:10327000804B1B687F4A43F4803313602EE07B68E9
:103280005B68002B0CD17B4B1B687A4A23F480339C
:103290001360784B1B68774A23F4802313601DE08A
:1032A0007B685B68B3F5A02F0CD1724B1B68714A29
:1032B00043F4802313606F4B1B686E4A43F48033E2
:1032C00013600BE06B4B1B686A4A23F48033136076
:1032D000684B1B68674A23F4802313607B685B6834
:1032E000002B13D0FEF78CFF386108E0FEF788FF53
:1032F00002463B69D31A642B01D90323FAE15D4BE3
:103300001B6803F40033002BF0D014E0FEF778FFC5
:10331000386108E0FEF774FF02463B69D31A642B5C
:1033200001D90323E6E1534B1B6803F40033002B60
:10333000F0D100E000BF7B681B6803F00203002BA4
:1033400063D04C4B5B6803F00C03002B0BD0494B54
:103350005B6803F00C03082B1CD1464B5B6803F43D
:103360008033002B16D1434B1B6803F00203002B64
:1033700005D07B681B69012B01D00123BAE13D4BCD
:103380001B6823F0F8027B685B69DB003949134353
:103390000B603AE07B681B69002B20D0364B012282
:1033A0001A60FEF72DFF386108E0FEF729FF02469C
:1033B0003B69D31A022B01D903239BE12D4B1B68D8
:1033C00003F00203002BF0D02A4B1B6823F0F80215
:1033D0007B685B69DB00274913430B6015E0264BD4
:1033E00000221A60FEF70CFF386108E0FEF708FFC4
:1033F00002463B69D31A022B01D903237AE11D4B04
:103400001B6803F00203002BF0D17B681B6803F0FC
:103410000803002B3AD07B689B69002B19D0174B0F
:1034200001221A60FEF7ECFE386108E0FEF7E8FEC4
:1034300002463B69D31A022B01D903235AE10D4BF3
:103440005B6A03F00203002BF0D0012000F0D8FAF1
:103450001CE00A4B00221A60FEF7D2FE38610FE032
:10346000FEF7CEFE02463B69D31A022B08D903238E
:1034700040E100BF0010024000004242800442428E
:103480009E4B5B6A03F00203002BE9D17B681B684B
:1034900003F00403002B00F0A6800023FB75974B7C
:1034A000DB6903F08053002B0DD1944BDB69934A09
:1034B00043F08053D361914BDB6903F08053BB60D1
:1034C000BB680123FB758E4B1B6803F48073002BD4
:1034D00018D18B4B1B688A4A43F480731360FEF744
:1034E0008FFE386108E0FEF78BFE02463B69D31A77
:1034F000642B01D90323FDE0814B1B6803F4807327
:10350000002BF0D07B68DB68012B06D17B4B1B6A5C
:103510007A4A43F0010313622DE07B68DB68002BDD
:103520000CD1764B1B6A754A23F001031362734B6F
:103530001B6A724A23F0040313621CE07B68DB6899
:10354000052B0CD16D4B1B6A6C4A43F004031362CC
:103550006A4B1B6A694A43F0010313620BE0674B35
:103560001B6A664A23F001031362644B1B6A634AB9
:1035700023F0040313627B68DB68002B15D0FEF791
:103580003FFE38610AE0FEF73BFE02463B69D31A74
:1035900041F28832934201D90323ABE0574B1B6AB7
:1035A00003F00203002BEED014E0FEF729FE386191
:1035B0000AE0FEF725FE02463B69D31A41F2883243
:1035C000934201D9032395E04C4B1B6A03F002039D
:1035D000002BEED1FB7D012B05D1484BDB69474A1F
:1035E00023F08053D3617B68DB69002B00F081807E
:1035F000424B5B6803F00C03082B61D07B68DB69EE
:10360000022B46D13F4B00221A60FEF7F9FD3861CC
:1036100008E0FEF7F5FD02463B69D31A022B01D9FB
:10362000032367E0354B1B6803F00073002BF0D1D8
:103630007B681B6AB3F5803F08D1304B5B6823F48D
:1036400000327B689B682D4913434B602B4B5B68B2
:1036500023F474127B68196A7B685B6A0B43274901
:1036600013434B60274B01221A60FEF7C9FD3861F6
:1036700008E0FEF7C5FD02463B69D31A022B01D9CB
:10368000032337E01D4B1B6803F00073002BF0D0C1
:103690002FE01C4B00221A60FEF7B2FD386108E0F3
:1036A000FEF7AEFD02463B69D31A022B01D9032374
:1036B00020E0124B1B6803F00073002BF0D118E0E0
:1036C0007B68DB69012B01D1012313E00B4B5B68A5
:1036D000FB60FB6803F480327B681B6A9A4206D168
:1036E000FB6803F470127B685B6A9A4201D0012385
:1036F00000E0002318461837BD4680BD0010024088
:10370000007000406000424280B584B000AF786035
:1037100039607B68002B01D10123D0E06A4B1B6824
:1037200003F007033A689A4210D9674B1B6823F0ED
:10373000070265493B6813430B60634B1B6803F04A
:1037400007033A689A4201D00123B8E07B681B68FE
:1037500003F00203002B20D07B681B6803F00403F6
:10376000002B05D0594B5B68584A43F4E063536023
:103770007B681B6803F00803002B05D0534B5B6884
:10378000524A43F460535360504B5B6823F0F0029D
:103790007B689B684D4913434B607B681B6803F053
:1037A0000103002B40D07B685B68012B07D1474B9E
:1037B0001B6803F40033002B15D101237FE07B68E5
:1037C0005B68022B07D1414B1B6803F00073002B91
:1037D00009D1012373E03D4B1B6803F00203002B6A
:1037E00001D101236BE0394B5B6823F003027B6856
:1037F0005B68364913434B60FEF702FDF8600AE050
:10380000FEF7FEFC0246FB68D31A41F2883293426F
:1038100001D9032353E02D4B5B6803F00C027B6856
:103820005B689B009A42EBD1274B1B6803F00703B0
:103830003A689A4210D2244B1B6823F007022249AF
:103840003B6813430B60204B1B6803F007033A6887
:103850009A4201D0012332E07B681B6803F0040325
:10386000002B08D0194B5B6823F4E0627B68DB68AF
:10387000164913434B607B681B6803F00803002B59
:1038800009D0124B5B6823F460527B681B69DB0034
:103890000E4913434B6000F021F802460B4B5B6866
:1038A0001B0903F00F030A49CB5C22FA03F3094A10
:1038B0001360094B1B681846FEF760FC002318468E
:1038C0001037BD4680BD00BF0020024000100240FE
:1038D00040740008000000201800002090B48AB056
:1038E00000AF2A4B3C1D0FCB84E80F0040F20123B0
:1038F0003B800023FB610023BB6100237B6200232C
:103900007B6100233B62224B5B68FB61FB6903F038
:103910000C03042B02D0082B03D02DE01D4B3B627F
:103920002DE0FB699B0C03F00F0307F12802134401
:1039300013F8243C7B61FB6903F48033002B13D024
:10394000134B5B685B0C03F0010307F1280213447F
:1039500013F8283CBB617B690E4A02FB03F2BB698A
:10396000B2FBF3F37B6204E07B690B4A02FB03F3D7
:103970007B627B6A3B6202E0064B3B6200BF3B6AB4
:1039800018462837BD4690BC704700BF3074000809
:103990000010024000127A0000093D0080B400AF20
:1039A000024B1B681846BD4680BC704700000020D3
:1039B00080B500AFFFF7F2FF0246054B5B681B0ABC
:1039C00003F007030349CB5C22FA03F3184680BDDA
:1039D000001002405074000880B500AFFFF7DEFF12
:1039E0000246054B5B68DB0A03F007030349CB5C27
:1039F00022FA03F3184680BD0010024050740008FC
:103A000080B485B000AF78600A4B1B680A4AA2FBFD
:103A100003235B0A7A6802FB03F3FB6000BFFB68C9
:103A20005A1EFA60002BF9D100BF00BF1437BD4603
:103A300080BC704700000020D34D621080B582B07A
:103A400000AF78607B68002B01D1012376E07B68B2
:103A50005B6A002B08D17B685B68B3F5827F09D075
:103A60007B680022DA6105E07B6800221A617B68CE
:103A700000225A617B6800229A627B6893F8513079
:103A8000DBB2002B06D17B68002283F850207868D7
:103A9000FEF706F87B68022283F851207B681B68DA
:103AA0001A687B681B6822F040021A607B685B68BA
:103AB00003F482727B689B6803F404431A437B68B7
:103AC000DB6803F400631A437B681B6903F002039D
:103AD0001A437B685B6903F001031A437B689B69A7
:103AE00003F400731A437B68DB6903F038031A435D
:103AF0007B681B6A03F0800342EA03017B689B6AD0
:103B000003F400527B681B680A431A607B689B6958
:103B10001A0C7B681B6802F004025A607B681B6801
:103B2000DA697B681B6822F40062DA617B68002234
:103B30005A657B68012283F8512000231846083714
:103B4000BD4680BD80B588B000AFF860B9603B600D
:103B50001346FB800023FB77FB6893F85030012B62
:103B600001D1022326E1FB68012283F85020FEF7F1
:103B700047FBB861FB88FB82FB6893F85130DBB2EE
:103B8000012B02D00223FB770BE1BB68002B02D094
:103B9000FB88002B02D10123FB7702E1FB680322A3
:103BA00083F85120FB6800225A65FB68BA681A63E3
:103BB000FB68FA889A86FB68FA88DA86FB68002236
:103BC0009A63FB6800229A87FB680022DA87FB6809
:103BD00000225A64FB6800221A64FB689B68B3F5F4
:103BE000004F0FD1FB681B681A68FB681B6822F046
:103BF00040021A60FB681B681A68FB681B6842F485
:103C000080421A60FB681B681B6803F04003402B6E
:103C100007D0FB681B681A68FB681B6842F040020B
:103C20001A60FB68DB68B3F5006F4BD1FB685B681B
:103C3000002B02D0FB8A012B3ED1FB681B6B1A883C
:103C4000FB681B68DA60FB681B6B9A1CFB681A63D5
:103C5000FB68DB8E9BB2013B9AB2FB68DA862BE0F5
:103C6000FB681B689B6803F00203022B12D1FB6800
:103C70001B6B1A88FB681B68DA60FB681B6B9A1C5D
:103C8000FB681A63FB68DB8E9BB2013B9AB2FB6850
:103C9000DA8611E0FEF7B4FA0246BB69D31A3A6835
:103CA0009A4203D83B68B3F1FF3F02D13B68002B37
:103CB00002D10323FB7774E0FB68DB8E9BB2002B01
:103CC000CED14CE0FB685B68002B02D0FB8A012B55
:103CD00040D1FB681A6BFB681B680C3312781A70B2
:103CE000FB681B6B5A1CFB681A63FB68DB8E9BB27C
:103CF000013B9AB2FB68DA862CE0FB681B689B6884
:103D000003F00203022B13D1FB681A6BFB681B68DC
:103D10000C3312781A70FB681B6B5A1CFB681A6311
:103D2000FB68DB8E9BB2013B9AB2FB68DA8611E03E
:103D3000FEF766FA0246BB69D31A3A689A4203D87C
:103D40003B68B3F1FF3F02D13B68002B02D1032354
:103D5000FB7726E0FB68DB8E9BB2002BCDD1BA69E6
:103D60003968F86800F0B2F80346002B02D0FB680F
:103D700020225A65FB689B68002B0AD100233B6117
:103D8000FB681B68DB683B61FB681B689B683B61E9
:103D90003B69FB685B6D002B02D00123FB7700E0E1
:103DA00000BFFB68012283F85120FB68002283F8E2
:103DB0005020FB7F18462037BD4680BD80B588B0B7
:103DC00000AFF860B9603B601346FB71FEF718FA6C
:103DD0000246BB6A9B1A3A681344FB61FEF710FA6D
:103DE000B861394B1B685B011B0DFA6902FB03F3D9
:103DF0007B6154E03B68B3F1FF3F50D0FEF700FA1F
:103E00000246BB69D31AFA699A4202D9FB69002BB0
:103E10003DD1FB681B685A68FB681B6822F0E00212
:103E20005A60FB685B68B3F5827F11D1FB689B68C1
:103E3000B3F5004F04D0FB689B68B3F5806F07D1E2
:103E4000FB681B681A68FB681B6822F040021A6056
:103E5000FB689B6AB3F5005F0FD1FB681B681A68AB
:103E6000FB681B6822F400521A60FB681B681A6822
:103E7000FB681B6842F400521A60FB68012283F859
:103E80005120FB68002283F85020032317E07B6950
:103E9000002B01D10023FB617B69013B7B61FB6847
:103EA0001B689A68BB681340BA689A420CBF01232A
:103EB0000023DBB21A46FB799A429BD100231846B5
:103EC0002037BD4680BD00BF0000002080B586B011
:103ED00002AFF860B9607A607B680093BB6800222B
:103EE0008021F868FFF76AFF0346002B07D0FB68C4
:103EF0005B6D43F02002FB685A65032300E000235A
:103F000018461037BD4680BD80B582B000AF7860DE
:103F10007B68002B01D101233FE07B6893F83D30A3
:103F2000DBB2002B06D17B68002283F83C20786846
:103F3000FDF77AFF7B68242283F83D207B681B68AD
:103F4000DA687B681B6822F40052DA60786800F057
:103F5000BFFC7B681B681A697B681B6822F490426F
:103F60001A617B681B685A697B681B6822F02A0209
:103F70005A617B681B68DA687B681B6842F40052F0
:103F8000DA607B6800221A647B68202283F83D2077
:103F90007B68202283F83E20002318460837BD4660
:103FA00080BD80B582B000AF78607B68002B01D106
:103FB000012321E07B68242283F83D207B681B6875
:103FC000DA687B681B6822F40052DA607868FEF7D2
:103FD0005DF87B6800221A647B68002283F83D202C
:103FE0007B68002283F83E207B6800221A637B688E
:103FF000002283F83C20002318460837BD4680BDC8
:1040000080B584B000AFF860B9601346FB80FB68F0
:1040100093F83E30DBB2202B1DD1BB68002B02D0C1
:10402000FB88002B01D1012316E0FB6893F83C309C
:10403000012B01D102230FE0FB68012283F83C2011
:10404000FB6800221A63FB881A46B968F86800F01A
:1040500075FA034600E0022318461037BD4680BDBE
:1040600080B58AB000AF78607B681B681B687B6294
:104070007B681B68DB683B627B681B685B69FB6174
:104080000023BB6100237B617B6A03F00F03BB61EC
:10409000BB69002B0DD17B6A03F02003002B08D0F5
:1040A0003B6A03F02003002B03D0786800F066FB26
:1040B0007BE1BB69002B00F0B180FB6903F00103D9
:1040C000002B05D13B6A03F49073002B00F0A6800F
:1040D0007B6A03F00103002B0AD03B6A03F4807370
:1040E000002B05D07B681B6C43F001027B681A64CF
:1040F0007B6A03F00403002B0AD0FB6903F0010381
:10410000002B05D07B681B6C43F002027B681A64AD
:104110007B6A03F00203002B0AD0FB6903F0010362
:10412000002B05D07B681B6C43F004027B681A648B
:104130007B6A03F00803002B0FD03B6A03F02003D7
:10414000002B04D1FB6903F00103002B05D07B6831
:104150001B6C43F008027B681A647B681B6C002BA5
:1041600000F01E817B6A03F02003002B07D03B6A1E
:1041700003F02003002B02D0786800F0FFFA7B6880
:104180001B685B6903F04003002B14BF012300236D
:10419000DBB27B617B681B6C03F00803002B02D150
:1041A0007B69002B31D0786800F041FA7B681B688E
:1041B0005B6903F04003002B23D07B681B685A69BE
:1041C0007B681B6822F040025A617B689B6B002B66
:1041D00013D07B689B6B764A5A637B689B6B18464F
:1041E000FEF7CCFA0346002B16D07B689B6B5B6B0B
:1041F0007A68926B104698470EE07868FDF7F8FDF4
:104200000AE07868FDF7F4FD06E07868FDF7F0FD58
:104210007B6800221A64C3E000BFC1E07B681B6BAF
:10422000012B40F0A1807B6A03F01003002B00F00B
:104230009B803B6A03F01003002B00F09580002365
:10424000FB607B681B681B68FB607B681B685B68A6
:10425000FB60FB687B681B685B6903F04003002B15
:104260004ED07B689B6B1B685B683B823B8A002B54
:1042700000F098807B689B8D3A8A9A4280F0928009
:104280007B683A8ADA857B689B6B9B69202B2BD0F5
:104290007B681B68DA687B681B6822F48072DA60CE
:1042A0007B681B685A697B681B6822F001025A61AF
:1042B0007B681B685A697B681B6822F040025A6160
:1042C0007B68202283F83E207B6800221A637B688B
:1042D0001B68DA687B681B6822F01002DA607B6872
:1042E0009B6B1846FEF70FFA7B689A8D7B68DB8D17
:1042F0009BB2D31A9BB21946786800F064F851E07B
:104300007B689A8D7B68DB8D9BB2D31A7B827B683E
:10431000DB8D9BB2002B47D07B8A002B44D07B687F
:104320001B68DA687B681B6822F49072DA607B682D
:104330001B685A697B681B6822F001025A617B681E
:10434000202283F83E207B6800221A637B681B686A
:10435000DA687B681B6822F01002DA607B8A1946F3
:10436000786800F030F81FE07B6A03F08003002BD0
:1043700008D03B6A03F08003002B03D0786800F07C
:1043800096F912E07B6A03F04003002B0DD03B6AE4
:1043900003F04003002B08D0786800F0D7F904E060
:1043A00000BF02E000BF00E000BF2837BD4680BD6F
:1043B0008746000880B483B000AF786000BF0C3738
:1043C000BD4680BC704780B483B000AF78600B46B8
:1043D0007B8000BF0C37BD4680BC704780B584B081
:1043E00000AF78607B685B6AFB607B681B681B685A
:1043F00003F02003002B2AD1FB680022DA85FB683A
:104400001B68DA68FB681B6822F48072DA60FB685C
:104410001B685A69FB681B6822F001025A61FB683D
:104420001B685A69FB681B6822F040025A61FB68EE
:10443000202283F83E20FB681B6B012B07D1FB6811
:104440001B68DA68FB681B6822F01002DA60FB6800
:104450001B6B012B06D1FB689B8D1946F868FFF793
:10446000B2FF02E0F868FDF7CCFC00BF1037BD4694
:1044700080BD80B584B000AF78607B685B6AFB600C
:10448000FB681B6B012B08D1FB689B8D5B089BB203
:104490001946F868FFF797FF02E0F868FFF78AFF10
:1044A00000BF1037BD4680BD80B584B000AF7860D6
:1044B0000023FB607B685B6ABB60BB681B685B6951
:1044C00003F08003002B14BF01230023DBB2FB6049
:1044D000BB6893F83D30DBB2212B08D1FB68002B81
:1044E00005D0BB680022DA84B86800F08BF8BB689E
:1044F0001B685B6903F04003002B14BF01230023FA
:10450000DBB2FB60BB6893F83E30DBB2222B08D1F4
:10451000FB68002B05D0BB680022DA85B86800F084
:1045200086F8BB681B6C43F01002BB681A64B8685D
:10453000FDF75EFC00BF1037BD4680BD80B586B07C
:1045400000AFF860B9601346FB80BA68FB689A62F6
:10455000FB68FA889A85FB6800221A64FB682222AD
:1045600083F83E20FB689B6B234A9A62FB689B6B37
:10457000224ADA62FB689B6B214A1A63FB689B6BD9
:1045800000225A6307F108037B61FB68986BFB68A4
:104590001B68043319467B691A68FB88FEF754F8D8
:1045A00000233B61FB681B681B683B61FB681B6861
:1045B0005B683B613B69FB68002283F83C20FB6839
:1045C0001B68DA68FB681B6842F48072DA60FB687B
:1045D0001B685A69FB681B6842F001025A61FB685C
:1045E0001B685A69FB681B6842F040025A6100234D
:1045F00018461837BD4680BDDD43000873440008E7
:10460000A944000880B483B000AF78607B681B6861
:10461000DA687B681B6822F0C002DA607B682022BF
:1046200083F83D2000BF0C37BD4680BC704780B486
:1046300083B000AF78607B681B68DA687B681B68B2
:1046400022F49072DA607B681B685A697B681B6889
:1046500022F001025A617B681B6B012B07D17B683A
:104660001B68DA687B681B6822F01002DA607B68DE
:10467000202283F83E207B6800221A6300BF0C379B
:10468000BD4680BC704780B584B000AF78607B6861
:104690005B6AFB60FB680022DA85FB680022DA8433
:1046A000F868FDF7A5FB00BF1037BD4680BD80B49C
:1046B00085B000AF78607B6893F83D30DBB2212B8A
:1046C0003ED17B689B68B3F5805F14D17B681B6922
:1046D000002B10D17B681B6AFB60FB681B881A46A5
:1046E0007B681B68C2F308025A607B681B6A9A1CCD
:1046F0007B681A6208E07B681B6A591C7A68116241
:104700001A787B681B685A607B68DB8C9BB2013B24
:104710009BB27A681946D184002B0FD17B681B6845
:10472000DA687B681B6822F08002DA607B681B68AD
:10473000DA687B681B6842F04002DA60002300E020
:10474000022318461437BD4680BC704780B582B03E
:1047500000AF78607B681B68DA687B681B6822F0B2
:104760004002DA607B68202283F83D207868FDF7FC
:1047700051FB002318460837BD4680BD80B586B082
:1047800000AF78607B6893F83E30DBB2222B40F0BC
:1047900099807B689B68B3F5805F17D17B681B6944
:1047A000002B13D100237B617B689B6A3B617B6894
:1047B0001B685B689BB2C3F308039AB23B691A801B
:1047C0007B689B6A9A1C7B689A6226E07B689B6A7E
:1047D0007B6100233B617B689B68B3F5805F07D0FA
:1047E0007B689B68002B0AD17B681B69002B06D174
:1047F0007B681B685B68DAB27B691A7008E07B68CB
:104800001B685B68DBB203F07F03DAB27B691A7066
:104810007B689B6A5A1C7B689A627B68DB8D9BB2C3
:10482000013B9BB27A681946D185002B48D17B6841
:104830001B68DA687B681B6822F02002DA607B68FC
:104840001B68DA687B681B6822F48072DA607B6818
:104850001B685A697B681B6822F001025A617B68F9
:10486000202283F83E207B681B6B012B23D17B68C1
:1048700000221A637B681B68DA687B681B6822F079
:104880001002DA607B681B681B6803F01003102BB2
:104890000AD10023FB607B681B681B68FB607B6898
:1048A0001B685B68FB60FB687B689B8D19467868BA
:1048B000FFF789FD02E07868FDF7A3FA002302E024
:1048C000002300E0022318461837BD4680BD0000D3
:1048D00080B584B000AF78607B681B681B6923F4E7
:1048E00040517B68DA687B681B680A431A617B6801
:1048F0009A687B681B691A437B685B691343BB60DA
:104900007B681B68DB6823F4B05323F00C037A68E0
:104910001268B9680B43D3607B681B685B6923F43A
:1049200040717B689A697B681B680A435A617B689F
:104930001B682C4A934203D1FFF74EF8F86002E05F
:10494000FFF736F8F860FA6813469B0013449A00A4
:104950001A447B685B689B00B2FBF3F3224AA2FB1C
:1049600003235B091901FA6813469B0013449A005C
:104970001A447B685B689B00B2FBF3F21A4BA3FB03
:1049800002035B09642000FB03F3D31A1B013233DB
:10499000154AA2FB03235B0903F0F0031944FA68EC
:1049A00013469B0013449A001A447B685B689B0083
:1049B000B2FBF3F20C4BA3FB02035B09642000FB88
:1049C00003F3D31A1B013233074AA2FB03235B090B
:1049D00003F00F027B681B680A449A6000BF10371F
:1049E000BD4680BD003801401F85EB5180B500AF4A
:1049F000FDF796FBFCF748F8FCF754F8002318463F
:104A000080BD0000014B1868704700BF20000020E7
:104A100070B500260C4D0D4C641BA410A64209D1A4
:104A200002F0F8FC00260A4D0A4C641BA410A642B2
:104A300005D170BD55F8043B98470136EEE755F8AF
:104A4000043B98470136F2E7747A0008747A00084C
:104A5000747A0008787A000803460244934200D131
:104A6000704703F8011BF9E7002B2DE9F0471F46BB
:104A7000BBBF03F100431F4600232D2388B014461B
:104A8000129A109D1370149BDDF84CA023F020089F
:104A9000B8F1460F05D0B8F1450F00D1013502231A
:104AA00000E0032307AA049206AACDE902A2CDE9F9
:104AB000003522463B4600F0C7FCB8F1470F0646DA
:104AC00002D1119BDB0722D5B8F1460F06EB050991
:104AD00010D13378302B0AD10022002320463946EA
:104AE000FBF762FF18B9C5F10105CAF80050DAF802
:104AF000003099440022002320463946FBF754FF3A
:104B000008B1CDF81C903022079B4B4507D33046A7
:104B1000079B159A9B1B136008B0BDE8F087591CD2
:104B200007911A70F0E70346F7B5002903F8022B46
:104B3000B6BF2D222B224942092942702BDD0DF1EF
:104B40000704A4460A2791FBF7F60A46A64607FB88
:104B50001615632A05F13005314604F1FF340EF8CD
:104B6000015CF0DC3031AEF1020504F8011C29468D
:104B7000441C61450AD30DF10902A2EB0E02654502
:104B800088BF00221344181A03B0F0BD11F8012B9E
:104B900004F8012FEDE7302330318370C170031D1D
:104BA000F1E700002DE9F04F91B00C46DDF8688088
:104BB00016461F46054601F035FA03681846099364
:104BC000FBF7C6FA00230E93D8F800300A9007339B
:104BD00023F0070303F1080294F81890D4F800B00A
:104BE000C8F80020D3E90023C4E91223D4E9128ACB
:104BF0002AF000430B934FF0FF3240469C4B0B9939
:104C0000FBF704FF70BB4FF0FF324046984B0B9907
:104C1000FBF7DEFE30BB0022002340465146FBF787
:104C2000CDFE10B12D2384F84330924B9248B9F158
:104C3000470F94BF9846804603234FF0000A236134
:104C40002BF00403236033462146284600970FAA21
:104C500000F0D4F9013040F090804FF0FF3011B0F7
:104C6000BDE8F08F4246534640465146FBF7CEFE24
:104C700048B1BAF1000FB8BF2D238048B8BF84F8FF
:104C800043307F4BD3E7636809F0DF015A1C42D100
:104C900006236360002206920EAACDE904920DAAB3
:104CA0004BF4806303920DF13302CDE901322360AE
:104CB000636842460093284653460B91FFF7D4FEA3
:104CC0000B99804647290D9908D1C81C02DB6368FF
:104CD000994240DDA9F102095FFA89F9B9F1650F3E
:104CE0001FD84A46013904F150000D91FFF71BFF10
:104CF0000E9A82461318012A236102DC2268D20729
:104D000001D5013323619DF83330002B9BD02D2337
:104D100084F8433097E74729BCD1002BBAD101234F
:104D2000B7E7B9F1660F18D1002963680BDD21617F
:104D300013B92268D00702D501330B4423614FF029
:104D4000000AA165DFE713B92268D20701D5023353
:104D5000F4E70123F2E74FF067090E9B994205DB68
:104D600023682161D807EAD54B1CE7E70029CCBFAF
:104D70000122C1F102021344E0E723685A0507D477
:104D80002369424631462846B84701302BD164E7B3
:104D9000B9F1650F40F2DD80D4E912010022002351
:104DA000FBF702FE002833D0012331462846354A5E
:104DB000B84701303FF451AFDDE90D239A4202DBE1
:104DC0002368D8070FD5DDE9092331462846B847BF
:104DD00001303FF442AF4FF0000804F11A090E9B76
:104DE000013B434509DC23689B0700F10281E06831
:104DF0000F9B9842B8BF184631E701234A46314617
:104E00002846B84701303FF428AF08F10108E6E72B
:104E10000D9B002B38DC012331462846194AB84740
:104E200001303FF41AAFDDE90D23134302D12368AB
:104E3000D907D8D5DDE9092331462846B8470130DE
:104E40003FF40BAF4FF0000904F11A0A0D9B5B42CF
:104E50004B4501DC0E9B94E7012352463146284620
:104E6000B84701303FF4F9AE09F10109EEE700BFA0
:104E7000FFFFEF7F9476000898760008A076000880
:104E80009C760008A47600080E9AA36D9A42A8BFEB
:104E90001A46002A914637DC4FF0000B29EAE979DF
:104EA00004F11A02D4F858A0AAEB09035B4533DCDD
:104EB000DDE90D239A423BDB2368DA0738D40E9AEA
:104EC0000D99A2EB0A03A2EB01099945A8BF9946E7
:104ED000B9F1000F34DC4FF0000829EAE97904F158
:104EE0001A0ADDE90D239B1AA3EB090343457FF75B
:104EF0007AAF0123524631462846B84701303FF485
:104F0000ACAE08F10108ECE71346314642462846AC
:104F1000B8470130C0D1A0E60123314628460B92A4
:104F2000B84701303FF499AE0B9A0BF1010BB9E78A
:104F30003146DDE909232846B8470130BFD18CE668
:104F40004B463146284608EB0A02B8470130C2D129
:104F500083E60E9A012A01DCDB0737D5012342469E
:104F600031462846B84701303FF477AEDDE90923E2
:104F700031462846B84701303FF46FAED4E91201FC
:104F800000220023FBF710FDD8B90E9B08F10102A7
:104F9000013B31462846B84701300ED15DE601237A
:104FA0004A4631462846B84701303FF456AE08F12C
:104FB00001080E9B013B4345F1DC534604F15002CE
:104FC000E0E64FF0000804F11A09F2E70123424637
:104FD000DFE701234A4631462846B84701303FF40F
:104FE0003CAE08F10108E3680F995B1A4345F0DC19
:104FF000FDE64FF0000804F11909F4E72DE9F04748
:10500000164699468A680B6907469342B8BF13460D
:10501000336091F843200C46DDF820800AB101335B
:1050200033602368990642BF3368023333602568D2
:1050300015F0060506D104F1190AE36832689B1AD7
:10504000AB4228DC94F84320131E226818BF0123CA
:1050500092062DD44946384604F14302C047013038
:1050600020D02368E56803F00603042B18BF002551
:1050700032684FF00006A36808BFAD1A226908BF66
:1050800025EAE5759342C4BF9B1AED181A34B54260
:105090001AD1002008E00123524649463846C0474D
:1050A000013003D14FF0FF30BDE8F0870135C4E790
:1050B0003020E11881F843005A1C94F8451022442E
:1050C000023382F84310C5E7012322464946384699
:1050D000C0470130E6D00136D9E700002DE9FF478F
:1050E0000C46277E9146782F80469A460C9904F10B
:1050F000430207D8622F0AD8002F00F0D980582F1A
:1051000000F0A48004F1420684F842703AE0A7F16E
:105110006303152BF6D801A050F823F07551000851
:105120008951000805510008055100080551000883
:105130000551000889510008055100080551000873
:10514000055100080551000897520008B9510008A0
:10515000795200080551000805510008B9520008AD
:1051600005510008B9510008055100080551000813
:10517000815200080B6804F142061A1D1B680A6080
:1051800084F842300123A4E0256808682E0600F167
:1051900004030AD505680B60002D03DA2D236D4248
:1051A00084F843300A235E4819E015F0400F056883
:1051B0000B6018BF2DB2EFE70B682568181D08605B
:1051C000280601D51D6802E06906FBD51D886F2FF2
:1051D0000CBF08230A235248002184F84310666854
:1051E000002EA8BF2168A660A4BF21F004012160A1
:1051F0000DB9002E4DD01646B5FBF3F103FB115748
:10520000C75D06F8017D2F46BB420D46F4D9082B39
:105210000BD12368DF0708D5236961689942DEBF97
:10522000302306F8013C06F1FF36921B22614B4603
:1052300021464046CDF800A003AAFFF7DFFE01306B
:105240004CD14FF0FF3004B0BDE8F087344884F80B
:1052500045700E68236856F8045B1F060E6014D56F
:10526000D90744BF43F0200323601DB9236823F00E
:10527000200323601023AFE7236843F0200323605B
:105280007823284884F84530E3E75E0648BFADB28E
:10529000E6E71646BBE70B6826681D1D60690D60D2
:1052A00035061B6801D5186002E07106FBD5188031
:1052B000002316462361BAE70B681A1D0A601E68B0
:1052C00000213046626800F0B9FE08B1801B6060C2
:1052D00063682361002384F84330A8E732464946D7
:1052E00040462369D0470130ABD023689B0713D4D5
:1052F000E068039B9842B8BF1846A4E701233246F2
:1053000049464046D04701309BD00135E3680399B8
:105310005B1AAB42F2DCEBE7002504F11906F5E776
:10532000A6760008B77600082DE9F74F03690C69E7
:105330000746A342C0F28380013C00F1140501F14D
:10534000140805EB8403019358F8243055F8242001
:1053500001339A42B2FBF3F64FEA840B08EB84095F
:1053600032D34FF0000E4046AC46F24650F8042BC4
:1053700093B206FB03E3120C4FEA134E06FB02E264
:105380009BB2AAEB0303DCF800A04FEA124E1FFA0F
:105390008AFA53441FFA82FADCF800208145CAEBEE
:1053A000124202EB23429BB243EA02434FEA224AF3
:1053B0004CF8043BDAD255F80B302BB9019B043B77
:1053C0009D421A462FD33C61384601F0CDF80028A3
:1053D00025DB28464FF0000C013658F8041BD0F8A6
:1053E00000E08BB2ACEB03031FFA8EF213440A0CFD
:1053F000C2EB1E4202EB23429BB243EA0243C14589
:105400004FEA224C40F8043BE7D255F8242005EB44
:10541000840322B9043B9D421A460AD33C613046BC
:1054200003B0BDE8F08F1268043B002ACBD1013CE9
:10543000C6E71268043B002AF0D1013CEBE70020EC
:10544000EEE70000000000002DE9F04F16461F4671
:10545000446A99B00546CDE90467DDF8948074B9D3
:10546000102000F0E3FD0246686220B9EA21AE4B4D
:10547000AE4801F045FAC0E901440460C4606B6ABB
:10548000196851B15A68012393404A608B602846DD
:1054900000F030FE00226B6A1A603B1EAFBF002393
:1054A000012223F000430593A8BFC8F80030DDF8BF
:1054B00014909F4BB8BFC8F8002033EA090319D1F4
:1054C00042F20F73249A1360C9F31303334300F0BD
:1054D0008085269B53B9974B22E0974B089308335E
:1054E000269A1360089819B0BDE8F08F914B089385
:1054F0000333F5E7DDE90434CDE90C34DDE90C01D3
:1055000000220023FBF750FA804658B10123249A69
:105510001360269B002B00F0598588481860431EB5
:105520000893DFE716AB019317AB00932846DDE93C
:105530000C2301F0C5F8C9F30A548246002C7ED032
:10554000DDE90C010D9BA4F2FF34C3F3130343F018
:105550007F5141F44011CDF84C800022784BFAF78E
:1055600003FE6BA3D3E90023FAF7B6FF6AA3D3E9DE
:105570000023FAF7FBFD064620460F46FAF742FFE6
:1055800067A3D3E90023FAF7A7FF02460B4630468C
:105590003946FAF7EBFD06460F46FBF74DFA0022B7
:1055A0008146002330463946FBF708FA48B14846A1
:1055B000FAF728FF32463B46FBF7F6F908B909F13E
:1055C000FF39B9F1160F57D8DDE90C015D4B03EB3C
:1055D000C903D3E90023FBF7F1F900284ED00023DB
:1055E00009F1FF390F93169B1C1B631E099349BFDA
:1055F000C4F1010300230693002354BF06930993CB
:10560000B9F1000F3CDB099BCDF838904B4409936E
:1056100000230A93229B092B6CD8052BC4BF043BA3
:105620002293229BC8BF0024A3F10203D8BF012408
:10563000032B00F28B80DFE803F02D4F4D5BDDE99B
:1056400016431C4404F23243202BC3BFC3F1400372
:1056500004F2124009FA03F3C3F12003C6BF26FA8D
:1056600000F0184306FA03F0FAF7BCFE0123A1F19B
:10567000F871013C139370E70123B3E70F90B2E791
:10568000069BA3EB09030693C9F100030A930023C9
:105690000E93BFE700230B93239B002B59DC4FF0A5
:1056A000010B5B46CDF808B0CDF88CB00022686ADB
:1056B0004260042202F114069E4241684FD92846F6
:1056C00000F0D8FC089000284DD102464FF4D57167
:1056D0001D4BCDE60123DEE700230B93239B09EB53
:1056E000030B0BF10103012B0293B8BF0123DDE78C
:1056F0000123F2E7012400230B9422934FF0FF3B98
:1057000000221223CDF808B02392CFE7AFF3008038
:1057100061436F63A787D23FB3C8608B288AC63FB7
:10572000FB799F501344D33FD5760008EC760008F0
:105730000000F07FD1760008C8760008A576000842
:105740000000F83FE87700084B77000801230B932F
:10575000D4E7DDF88CB05B46CDF808B0A6E70131A0
:1057600041605200A6E76B6A089A1A60029B0E2BF2
:1057700000F2A880002C00F0A580B9F1000F34DD04
:105780009A4A09F00F0302EBC30319F4807FD3E9AF
:105790000034CDE910344FEA291416D0DDE90C01AC
:1057A000934B0327D3E90823FAF7C0FFCDE904019F
:1057B00004F00F048E4E54B9DDE91023DDE9040135
:1057C000FAF7B4FFCDE9040129E00227F2E7E10787
:1057D00008D5DDE91001D6E90023FAF77DFECDE911
:1057E0001001013764100836E5E700F0A580DDE917
:1057F0000C01C9F100047D4B04F00F0203EBC2035E
:10580000D3E90023FAF768FE02270023CDE904015B
:10581000774E2411002C40F08480002BD2D10F9BB6
:10582000002B00F08B80DDE90434CDE91034DDE994
:10583000100100226F4BFBF7C1F800287ED0029BBD
:10584000002B7BD0BBF1000F38DDDDE91001002219
:10585000694BFAF741FE5C46CDE9040109F1FF38D6
:1058600001373846FAF7CEFDDDE90423FAF734FEB6
:105870000022624BFAF77AFCA1F15076CDE91001D3
:105880001196002C5DD1DDE9040100225C4BFAF792
:105890006BFC02460B46CDE904233346109AFBF716
:1058A000ABF8002840F09E82DDE90401109A06F171
:1058B0000043FBF783F8002840F09282DDE90C34C6
:1058C000CDE90434179B002BC0F25381B9F10E0FC0
:1058D00000F34F81454B03EBC903D3E90034CDE915
:1058E0000634239B002B80F2DB80029B002B00F30D
:1058F000D78040F07482DDE906010022404BFAF7C0
:10590000EBFDDDE90423FBF76DF8029C2646002839
:1059100040F04A823123089F09F1010907F8013B51
:1059200046E2E20705D5D6E90023FAF7D5FD0123C3
:105930000137641008366DE7022770E7C846029CFD
:105940008FE70899294B214412910B9903EBC4036B
:10595000DDE9106753E90223002955D000202949C9
:10596000FAF7E4FE3B463246FAF7FEFBCDE91001BA
:10597000089FDDE90401FBF75FF80446FAF742FDF2
:1059800002460B46DDE90401FAF7EEFB02460B4640
:105990003034CDE90423DDE9102307F8014BFBF790
:1059A0000DF8002874D1DDE9042300201149FAF72D
:1059B000DBFBDDE91023FBF701F8002840F0B6809F
:1059C000129B9F423FF47AAFDDE9100100220A4B9F
:1059D000FAF782FD0022CDE91001DDE90401064B52
:1059E000FAF77AFDCDE90401C3E700BFE8770008C4
:1059F000C07700080000F03F0000244000001C4079
:105A0000000014400000E03F30463946FAF764FDDC
:105A1000129BCDE91001089C1493DDE90401FBF70A
:105A20000BF81590FAF7EEFC02460B46DDE904018F
:105A3000FAF79AFB159B0646303304F8013B129B9C
:105A40000F469C424FF0000224D1DDE91001B34B18
:105A5000FAF78CFB02460B4630463946FAF7CCFF84
:105A6000002862D1DDE910230020AC49FAF77CFB65
:105A700002460B4630463946FAF7A0FF00283FF4AD
:105A80001DAF149F7B1E149317F8013C302BF8D0E8
:105A9000C1463AE0A24BFAF71FFDCDE90401BCE78D
:105AA000089FDDE90623DDE90401FAF73FFEFAF776
:105AB000C3FF0446FAF7A6FCDDE90623FAF70CFD5E
:105AC00004F130060B460246DDE90401FAF74CFB0F
:105AD00007F8016B089E029BBE1BB3423AD10246F7
